{
  "_format": "hh-sol-artifact-1",
  "contractName": "Incrementer2",
  "sourceName": "contracts/Incrementer.sol",
  "abi": [
    {
      "inputs": [
        {
          "internalType": "uint256",
          "name": "_initialNumber",
          "type": "uint256"
        }
      ],
      "stateMutability": "nonpayable",
      "type": "constructor"
    },
    {
      "anonymous": false,
      "inputs": [
        {
          "indexed": false,
          "internalType": "uint256",
          "name": "value",
          "type": "uint256"
        }
      ],
      "name": "Increment2",
      "type": "event"
    },
    {
      "anonymous": false,
      "inputs": [],
      "name": "Reset",
      "type": "event"
    },
    {
      "inputs": [],
      "name": "getNumber",
      "outputs": [
        {
          "internalType": "uint256",
          "name": "",
          "type": "uint256"
        }
      ],
      "stateMutability": "view",
      "type": "function"
    },
    {
      "inputs": [
        {
          "internalType": "uint256",
          "name": "_value",
          "type": "uint256"
        }
      ],
      "name": "increment",
      "outputs": [],
      "stateMutability": "nonpayable",
      "type": "function"
    },
    {
      "inputs": [],
      "name": "number",
      "outputs": [
        {
          "internalType": "uint256",
          "name": "",
          "type": "uint256"
        }
      ],
      "stateMutability": "view",
      "type": "function"
    },
    {
      "inputs": [],
      "name": "reset",
      "outputs": [],
      "stateMutability": "nonpayable",
      "type": "function"
    }
  ],
  "bytecode": "0x608060405234801561001057600080fd5b5060405161024138038061024183398101604081905261002f91610037565b600055610050565b60006020828403121561004957600080fd5b5051919050565b6101e28061005f6000396000f3fe608060405234801561001057600080fd5b506004361061004c5760003560e01c80637cf5dab0146100515780638381f58a14610066578063d826f88f14610081578063f2c9ecd814610089575b600080fd5b61006461005f36600461016c565b610091565b005b61006f60005481565b60405190815260200160405180910390f35b61006461013e565b60005461006f565b600081116100f75760405162461bcd60e51b815260206004820152602960248201527f696e6372656d656e742076616c75652073686f756c6420626520706f736974696044820152683b3290373ab6b132b960b91b606482015260840160405180910390fd5b806000546101059190610185565b6000556040518181527f0335b51418df6ad87c7638414b2dd16910635533ebf9090fab3f0fdd07a515089060200160405180910390a150565b60008080556040517f6423db340205c829eeb91151b1c5d1dc6d7a2b8708b1621494e89ba90c87081e9190a1565b60006020828403121561017e57600080fd5b5035919050565b808201808211156101a657634e487b7160e01b600052601160045260246000fd5b9291505056fea26469706673582212200eca883ea0c3ca3ac13fff7e21fdbe345417c49056749323d77692627e869e1e64736f6c63430008110033",
  "linkReferences": {},
  "deployedLinkReferences": {}
}