{
  "_format": "hh-sol-artifact-1",
  "contractName": "Presale",
  "sourceName": "contracts/Presale.sol",
  "abi": [
    {
      "inputs": [
        {
          "internalType": "contract SimpleToken",
          "name": "_token",
          "type": "address"
        }
      ],
      "stateMutability": "nonpayable",
      "type": "constructor"
    },
    {
      "anonymous": false,
      "inputs": [
        {
          "indexed": true,
          "internalType": "address",
          "name": "previousOwner",
          "type": "address"
        },
        {
          "indexed": true,
          "internalType": "address",
          "name": "newOwner",
          "type": "address"
        }
      ],
      "name": "OwnershipTransferred",
      "type": "event"
    },
    {
      "anonymous": false,
      "inputs": [
        {
          "indexed": true,
          "internalType": "address",
          "name": "purchaser",
          "type": "address"
        },
        {
          "indexed": true,
          "internalType": "address",
          "name": "beneficiary",
          "type": "address"
        },
        {
          "indexed": false,
          "internalType": "uint256",
          "name": "value",
          "type": "uint256"
        },
        {
          "indexed": false,
          "internalType": "uint256",
          "name": "amount",
          "type": "uint256"
        }
      ],
      "name": "TokensPurchased",
      "type": "event"
    },
    {
      "inputs": [
        {
          "internalType": "address",
          "name": "beneficiary",
          "type": "address"
        }
      ],
      "name": "buyTokens",
      "outputs": [],
      "stateMutability": "payable",
      "type": "function"
    },
    {
      "inputs": [],
      "name": "owner",
      "outputs": [
        {
          "internalType": "address",
          "name": "",
          "type": "address"
        }
      ],
      "stateMutability": "view",
      "type": "function"
    },
    {
      "inputs": [],
      "name": "rate",
      "outputs": [
        {
          "internalType": "uint256",
          "name": "",
          "type": "uint256"
        }
      ],
      "stateMutability": "view",
      "type": "function"
    },
    {
      "inputs": [],
      "name": "renounceOwnership",
      "outputs": [],
      "stateMutability": "nonpayable",
      "type": "function"
    },
    {
      "inputs": [],
      "name": "token",
      "outputs": [
        {
          "internalType": "contract SimpleToken",
          "name": "",
          "type": "address"
        }
      ],
      "stateMutability": "view",
      "type": "function"
    },
    {
      "inputs": [
        {
          "internalType": "address",
          "name": "newOwner",
          "type": "address"
        }
      ],
      "name": "transferOwnership",
      "outputs": [],
      "stateMutability": "nonpayable",
      "type": "function"
    },
    {
      "inputs": [],
      "name": "weiRaised",
      "outputs": [
        {
          "internalType": "uint256",
          "name": "",
          "type": "uint256"
        }
      ],
      "stateMutability": "view",
      "type": "function"
    },
    {
      "stateMutability": "payable",
      "type": "receive"
    }
  ],
  "bytecode": "0x60806040526103e860025534801561001657600080fd5b50604051610637380380610637833981016040819052610035916100b3565b61003e33610063565b600180546001600160a01b0319166001600160a01b03929092169190911790556100e3565b600080546001600160a01b038381166001600160a01b0319831681178455604051919092169283917f8be0079c531659141344cd1fd0a4f28419497f9722a3daafe3b4186f6b6457e09190a35050565b6000602082840312156100c557600080fd5b81516001600160a01b03811681146100dc57600080fd5b9392505050565b610545806100f26000396000f3fe6080604052600436106100745760003560e01c80638da5cb5b1161004e5780638da5cb5b146100dd578063ec8ac4d81461010f578063f2fde38b14610122578063fc0c546a1461014257600080fd5b80632c4e722e146100895780634042b66f146100b2578063715018a6146100c857600080fd5b366100845761008233610162565b005b600080fd5b34801561009557600080fd5b5061009f60025481565b6040519081526020015b60405180910390f35b3480156100be57600080fd5b5061009f60035481565b3480156100d457600080fd5b50610082610340565b3480156100e957600080fd5b506000546001600160a01b03165b6040516001600160a01b0390911681526020016100a9565b61008261011d366004610477565b610162565b34801561012e57600080fd5b5061008261013d366004610477565b610354565b34801561014e57600080fd5b506001546100f7906001600160a01b031681565b346001600160a01b0382166101c95760405162461bcd60e51b815260206004820152602260248201527f42656e656669636961727920616464726573732063616e6e6f74206265207a65604482015261726f60f01b60648201526084015b60405180910390fd5b806000036102195760405162461bcd60e51b815260206004820152601960248201527f57656920616d6f756e742063616e6e6f74206265207a65726f0000000000000060448201526064016101c0565b60006002548261022991906104bd565b9050816003600082825461023d91906104da565b909155505060015460405163a9059cbb60e01b81526001600160a01b038581166004830152602482018490529091169063a9059cbb906044016020604051808303816000875af1158015610295573d6000803e3d6000fd5b505050506040513d601f19601f820116820180604052508101906102b991906104ed565b5060408051838152602081018390526001600160a01b0385169133917f6faf93231a456e552dbc9961f58d9713ee4f2e69d15f1975b050ef0911053a7b910160405180910390a3600080546040516001600160a01b03909116913480156108fc02929091818181858888f1935050505015801561033a573d6000803e3d6000fd5b50505050565b6103486103cd565b6103526000610427565b565b61035c6103cd565b6001600160a01b0381166103c15760405162461bcd60e51b815260206004820152602660248201527f4f776e61626c653a206e6577206f776e657220697320746865207a65726f206160448201526564647265737360d01b60648201526084016101c0565b6103ca81610427565b50565b6000546001600160a01b031633146103525760405162461bcd60e51b815260206004820181905260248201527f4f776e61626c653a2063616c6c6572206973206e6f7420746865206f776e657260448201526064016101c0565b600080546001600160a01b038381166001600160a01b0319831681178455604051919092169283917f8be0079c531659141344cd1fd0a4f28419497f9722a3daafe3b4186f6b6457e09190a35050565b60006020828403121561048957600080fd5b81356001600160a01b03811681146104a057600080fd5b9392505050565b634e487b7160e01b600052601160045260246000fd5b80820281158282048414176104d4576104d46104a7565b92915050565b808201808211156104d4576104d46104a7565b6000602082840312156104ff57600080fd5b815180151581146104a057600080fdfea2646970667358221220322cd6e0b71c92eaee2ce767d4c4692d516b7c670f5fb6b43e8c187fe3e474bc64736f6c63430008110033",
  "linkReferences": {},
  "deployedLinkReferences": {}
}