{
  "_format": "hh-sol-artifact-1",
  "contractName": "Presale",
  "sourceName": "contracts/Presale.sol",
  "abi": [
    {
      "inputs": [
        {
          "internalType": "contract SimpleToken",
          "name": "_token",
          "type": "address"
        },
        {
          "internalType": "uint256",
          "name": "_rate",
          "type": "uint256"
        }
      ],
      "stateMutability": "nonpayable",
      "type": "constructor"
    },
    {
      "anonymous": false,
      "inputs": [
        {
          "indexed": true,
          "internalType": "address",
          "name": "purchaser",
          "type": "address"
        },
        {
          "indexed": false,
          "internalType": "uint256",
          "name": "amount",
          "type": "uint256"
        }
      ],
      "name": "TokensPurchased",
      "type": "event"
    },
    {
      "inputs": [],
      "name": "buyTokens",
      "outputs": [],
      "stateMutability": "payable",
      "type": "function"
    },
    {
      "inputs": [],
      "name": "owner",
      "outputs": [
        {
          "internalType": "address",
          "name": "",
          "type": "address"
        }
      ],
      "stateMutability": "view",
      "type": "function"
    },
    {
      "inputs": [],
      "name": "rate",
      "outputs": [
        {
          "internalType": "uint256",
          "name": "",
          "type": "uint256"
        }
      ],
      "stateMutability": "view",
      "type": "function"
    },
    {
      "inputs": [
        {
          "internalType": "uint256",
          "name": "newRate",
          "type": "uint256"
        }
      ],
      "name": "setRate",
      "outputs": [],
      "stateMutability": "nonpayable",
      "type": "function"
    },
    {
      "inputs": [],
      "name": "token",
      "outputs": [
        {
          "internalType": "contract SimpleToken",
          "name": "",
          "type": "address"
        }
      ],
      "stateMutability": "view",
      "type": "function"
    },
    {
      "inputs": [
        {
          "internalType": "uint256",
          "name": "amount",
          "type": "uint256"
        }
      ],
      "name": "withdrawETH",
      "outputs": [],
      "stateMutability": "nonpayable",
      "type": "function"
    },
    {
      "inputs": [
        {
          "internalType": "uint256",
          "name": "amount",
          "type": "uint256"
        }
      ],
      "name": "withdrawTokens",
      "outputs": [],
      "stateMutability": "nonpayable",
      "type": "function"
    }
  ],
  "bytecode": "0x608060405234801561001057600080fd5b506040516107b63803806107b683398101604081905261002f916100b5565b600081116100835760405162461bcd60e51b815260206004820152601b60248201527f52617465206d7573742062652067726561746572207468616e20300000000000604482015260640160405180910390fd5b600080546001600160a01b039093166001600160a01b03199384161790556001805490921633179091556002556100ef565b600080604083850312156100c857600080fd5b82516001600160a01b03811681146100df57600080fd5b6020939093015192949293505050565b6106b8806100fe6000396000f3fe6080604052600436106100705760003560e01c80638da5cb5b1161004e5780638da5cb5b146100e0578063d0febe4c14610118578063f14210a614610120578063fc0c546a1461014057600080fd5b80632c4e722e14610075578063315a095d1461009e57806334fcf437146100c0575b600080fd5b34801561008157600080fd5b5061008b60025481565b6040519081526020015b60405180910390f35b3480156100aa57600080fd5b506100be6100b93660046105cc565b610160565b005b3480156100cc57600080fd5b506100be6100db3660046105cc565b6102d4565b3480156100ec57600080fd5b50600154610100906001600160a01b031681565b6040516001600160a01b039091168152602001610095565b6100be610353565b34801561012c57600080fd5b506100be61013b3660046105cc565b610518565b34801561014c57600080fd5b50600054610100906001600160a01b031681565b6001546001600160a01b031633146101935760405162461bcd60e51b815260040161018a906105e5565b60405180910390fd5b6000546040516370a0823160e01b815230600482015282916001600160a01b0316906370a0823190602401602060405180830381865afa1580156101db573d6000803e3d6000fd5b505050506040513d601f19601f820116820180604052508101906101ff9190610615565b10156102575760405162461bcd60e51b815260206004820152602160248201527f4e6f7420656e6f75676820746f6b656e7320696e2074686520636f6e747261636044820152601d60fa1b606482015260840161018a565b60005460015460405163a9059cbb60e01b81526001600160a01b0391821660048201526024810184905291169063a9059cbb906044016020604051808303816000875af11580156102ac573d6000803e3d6000fd5b505050506040513d601f19601f820116820180604052508101906102d0919061062e565b5050565b6001546001600160a01b031633146102fe5760405162461bcd60e51b815260040161018a906105e5565b6000811161034e5760405162461bcd60e51b815260206004820152601b60248201527f52617465206d7573742062652067726561746572207468616e20300000000000604482015260640161018a565b600255565b6000600254346103639190610657565b6000546001546040516370a0823160e01b81526001600160a01b03918216600482015292935083929116906370a0823190602401602060405180830381865afa1580156103b4573d6000803e3d6000fd5b505050506040513d601f19601f820116820180604052508101906103d89190610615565b10156104265760405162461bcd60e51b815260206004820181905260248201527f4e6f7420656e6f75676820746f6b656e7320696e207468652072657365727665604482015260640161018a565b6001546040516001600160a01b03909116903480156108fc02916000818181858888f1935050505015801561045f573d6000803e3d6000fd5b506000546001546040516323b872dd60e01b81526001600160a01b039182166004820152336024820152604481018490529116906323b872dd906064016020604051808303816000875af11580156104bb573d6000803e3d6000fd5b505050506040513d601f19601f820116820180604052508101906104df919061062e565b5060405181815233907f8f28852646c20cc973d3a8218f7eefed58c25c909f78f0265af4818c3d4dc2719060200160405180910390a250565b6001546001600160a01b031633146105425760405162461bcd60e51b815260040161018a906105e5565b804710156105925760405162461bcd60e51b815260206004820152601e60248201527f4e6f7420656e6f7567682045544820696e2074686520636f6e74726163740000604482015260640161018a565b6001546040516001600160a01b039091169082156108fc029083906000818181858888f193505050501580156102d0573d6000803e3d6000fd5b6000602082840312156105de57600080fd5b5035919050565b6020808252601690820152752737ba103a34329031b7b73a3930b1ba1037bbb732b960511b604082015260600190565b60006020828403121561062757600080fd5b5051919050565b60006020828403121561064057600080fd5b8151801515811461065057600080fd5b9392505050565b808202811582820484141761067c57634e487b7160e01b600052601160045260246000fd5b9291505056fea2646970667358221220af0d0fd74b1ac0432d253ee7ea8b977fdd697e955d348d995fbafa572639308e64736f6c63430008110033",
  "linkReferences": {},
  "deployedLinkReferences": {}
}