{
  "_format": "hh-sol-artifact-1",
  "contractName": "Presale",
  "sourceName": "contracts/Presale.sol",
  "abi": [
    {
      "inputs": [
        {
          "internalType": "uint256",
          "name": "_rate",
          "type": "uint256"
        },
        {
          "internalType": "address payable",
          "name": "_wallet",
          "type": "address"
        },
        {
          "internalType": "contract SimpleToken",
          "name": "_token",
          "type": "address"
        }
      ],
      "stateMutability": "nonpayable",
      "type": "constructor"
    },
    {
      "anonymous": false,
      "inputs": [
        {
          "indexed": true,
          "internalType": "address",
          "name": "previousOwner",
          "type": "address"
        },
        {
          "indexed": true,
          "internalType": "address",
          "name": "newOwner",
          "type": "address"
        }
      ],
      "name": "OwnershipTransferred",
      "type": "event"
    },
    {
      "anonymous": false,
      "inputs": [
        {
          "indexed": true,
          "internalType": "address",
          "name": "purchaser",
          "type": "address"
        },
        {
          "indexed": true,
          "internalType": "address",
          "name": "beneficiary",
          "type": "address"
        },
        {
          "indexed": false,
          "internalType": "uint256",
          "name": "value",
          "type": "uint256"
        },
        {
          "indexed": false,
          "internalType": "uint256",
          "name": "amount",
          "type": "uint256"
        }
      ],
      "name": "TokensPurchased",
      "type": "event"
    },
    {
      "inputs": [
        {
          "internalType": "address",
          "name": "beneficiary",
          "type": "address"
        }
      ],
      "name": "buyTokens",
      "outputs": [],
      "stateMutability": "payable",
      "type": "function"
    },
    {
      "inputs": [],
      "name": "owner",
      "outputs": [
        {
          "internalType": "address",
          "name": "",
          "type": "address"
        }
      ],
      "stateMutability": "view",
      "type": "function"
    },
    {
      "inputs": [],
      "name": "rate",
      "outputs": [
        {
          "internalType": "uint256",
          "name": "",
          "type": "uint256"
        }
      ],
      "stateMutability": "view",
      "type": "function"
    },
    {
      "inputs": [],
      "name": "renounceOwnership",
      "outputs": [],
      "stateMutability": "nonpayable",
      "type": "function"
    },
    {
      "inputs": [],
      "name": "token",
      "outputs": [
        {
          "internalType": "contract SimpleToken",
          "name": "",
          "type": "address"
        }
      ],
      "stateMutability": "view",
      "type": "function"
    },
    {
      "inputs": [
        {
          "internalType": "address",
          "name": "newOwner",
          "type": "address"
        }
      ],
      "name": "transferOwnership",
      "outputs": [],
      "stateMutability": "nonpayable",
      "type": "function"
    },
    {
      "inputs": [],
      "name": "wallet",
      "outputs": [
        {
          "internalType": "address payable",
          "name": "",
          "type": "address"
        }
      ],
      "stateMutability": "view",
      "type": "function"
    },
    {
      "stateMutability": "payable",
      "type": "receive"
    }
  ],
  "bytecode": "0x608060405234801561001057600080fd5b5060405161074038038061074083398101604081905261002f916101e4565b6100383361017c565b600083116100825760405162461bcd60e51b8152602060048201526012602482015271050726573616c653a207261746520697320360741b60448201526064015b60405180910390fd5b6001600160a01b0382166100e45760405162461bcd60e51b815260206004820152602360248201527f50726573616c653a2077616c6c657420697320746865207a65726f206164647260448201526265737360e81b6064820152608401610079565b6001600160a01b0381166101455760405162461bcd60e51b815260206004820152602260248201527f50726573616c653a20746f6b656e20697320746865207a65726f206164647265604482015261737360f01b6064820152608401610079565b600292909255600380546001600160a01b039283166001600160a01b03199182161790915560018054929093169116179055610227565b600080546001600160a01b038381166001600160a01b0319831681178455604051919092169283917f8be0079c531659141344cd1fd0a4f28419497f9722a3daafe3b4186f6b6457e09190a35050565b6001600160a01b03811681146101e157600080fd5b50565b6000806000606084860312156101f957600080fd5b83519250602084015161020b816101cc565b604085015190925061021c816101cc565b809150509250925092565b61050a806102366000396000f3fe6080604052600436106100745760003560e01c80638da5cb5b1161004e5780638da5cb5b146100ff578063ec8ac4d81461011d578063f2fde38b14610130578063fc0c546a1461015057600080fd5b80632c4e722e14610089578063521eb273146100b2578063715018a6146100ea57600080fd5b366100845761008233610170565b005b600080fd5b34801561009557600080fd5b5061009f60025481565b6040519081526020015b60405180910390f35b3480156100be57600080fd5b506003546100d2906001600160a01b031681565b6040516001600160a01b0390911681526020016100a9565b3480156100f657600080fd5b50610082610272565b34801561010b57600080fd5b506000546001600160a01b03166100d2565b61008261012b36600461047f565b610170565b34801561013c57600080fd5b5061008261014b36600461047f565b610286565b34801561015c57600080fd5b506001546100d2906001600160a01b031681565b3461017b8282610304565b6000610186826103bf565b6003546040519192506001600160a01b0316903480156108fc02916000818181858888f193505050501580156101c0573d6000803e3d6000fd5b506001546040516340c10f1960e01b81526001600160a01b03858116600483015260248201849052909116906340c10f1990604401600060405180830381600087803b15801561020f57600080fd5b505af1158015610223573d6000803e3d6000fd5b505060408051858152602081018590526001600160a01b03871693503392507f6faf93231a456e552dbc9961f58d9713ee4f2e69d15f1975b050ef0911053a7b910160405180910390a3505050565b61027a6103d5565b610284600061042f565b565b61028e6103d5565b6001600160a01b0381166102f85760405162461bcd60e51b815260206004820152602660248201527f4f776e61626c653a206e6577206f776e657220697320746865207a65726f206160448201526564647265737360d01b60648201526084015b60405180910390fd5b6103018161042f565b50565b6001600160a01b03821661036b5760405162461bcd60e51b815260206004820152602860248201527f50726573616c653a2062656e656669636961727920697320746865207a65726f604482015267206164647265737360c01b60648201526084016102ef565b806000036103bb5760405162461bcd60e51b815260206004820152601760248201527f50726573616c653a20776569416d6f756e74206973203000000000000000000060448201526064016102ef565b5050565b6000600254826103cf91906104af565b92915050565b6000546001600160a01b031633146102845760405162461bcd60e51b815260206004820181905260248201527f4f776e61626c653a2063616c6c6572206973206e6f7420746865206f776e657260448201526064016102ef565b600080546001600160a01b038381166001600160a01b0319831681178455604051919092169283917f8be0079c531659141344cd1fd0a4f28419497f9722a3daafe3b4186f6b6457e09190a35050565b60006020828403121561049157600080fd5b81356001600160a01b03811681146104a857600080fd5b9392505050565b80820281158282048414176103cf57634e487b7160e01b600052601160045260246000fdfea264697066735822122048d074ed1d2930c0d95f3c524a30711c262cb446b1440d6331136d330d1cd36064736f6c63430008110033",
  "linkReferences": {},
  "deployedLinkReferences": {}
}