{
  "_format": "hh-sol-artifact-1",
  "contractName": "Incrementer",
  "sourceName": "contracts/Contract.sol",
  "abi": [
    {
      "inputs": [
        {
          "internalType": "uint256",
          "name": "_initialNumber",
          "type": "uint256"
        }
      ],
      "stateMutability": "nonpayable",
      "type": "constructor"
    },
    {
      "inputs": [],
      "name": "getNumber",
      "outputs": [
        {
          "internalType": "uint256",
          "name": "",
          "type": "uint256"
        }
      ],
      "stateMutability": "view",
      "type": "function"
    },
    {
      "inputs": [
        {
          "internalType": "uint256",
          "name": "_value",
          "type": "uint256"
        }
      ],
      "name": "increment",
      "outputs": [],
      "stateMutability": "nonpayable",
      "type": "function"
    },
    {
      "inputs": [],
      "name": "number",
      "outputs": [
        {
          "internalType": "uint256",
          "name": "",
          "type": "uint256"
        }
      ],
      "stateMutability": "view",
      "type": "function"
    },
    {
      "inputs": [],
      "name": "reset",
      "outputs": [],
      "stateMutability": "nonpayable",
      "type": "function"
    }
  ],
  "bytecode": "0x608060405234801561001057600080fd5b5060405161016a38038061016a83398101604081905261002f91610037565b600055610050565b60006020828403121561004957600080fd5b5051919050565b61010b8061005f6000396000f3fe6080604052348015600f57600080fd5b506004361060465760003560e01c80637cf5dab014604b5780638381f58a14605c578063d826f88f146076578063f2c9ecd814607e575b600080fd5b605a60563660046097565b6085565b005b606460005481565b60405190815260200160405180910390f35b605a60008055565b6000546064565b806000546091919060af565b60005550565b60006020828403121560a857600080fd5b5035919050565b8082018082111560cf57634e487b7160e01b600052601160045260246000fd5b9291505056fea264697066735822122044931805bd0f091f10eb64bfa6908b961ec2e94af430e9921f85ac199a64f8f764736f6c63430008110033",
  "linkReferences": {},
  "deployedLinkReferences": {}
}